{
  "contractName": "Election",
  "abi": [
    {
      "constant": true,
      "inputs": [],
      "name": "candidatesCount",
      "outputs": [
        {
          "name": "",
          "type": "uint256"
        }
      ],
      "payable": false,
      "stateMutability": "view",
      "type": "function"
    },
    {
      "constant": true,
      "inputs": [
        {
          "name": "",
          "type": "uint256"
        }
      ],
      "name": "candidates",
      "outputs": [
        {
          "name": "id",
          "type": "uint256"
        },
        {
          "name": "name",
          "type": "string"
        },
        {
          "name": "voteCount",
          "type": "uint256"
        }
      ],
      "payable": false,
      "stateMutability": "view",
      "type": "function"
    },
    {
      "inputs": [],
      "payable": false,
      "stateMutability": "nonpayable",
      "type": "constructor"
    }
  ],
  "bytecode": "0x608060405234801561001057600080fd5b5061005e6040805190810160405280600581526020017f53616c656d0000000000000000000000000000000000000000000000000000008152506100b0640100000000026401000000009004565b6100ab6040805190810160405280600881526020017f4d6f68616d6d65640000000000000000000000000000000000000000000000008152506100b0640100000000026401000000009004565b6101d1565b60016000815480929190600101919050555060606040519081016040528060015481526020018281526020016000815250600080600154815260200190815260200160002060008201518160000155602082015181600101908051906020019061011b92919061012c565b506040820151816002015590505050565b828054600181600116156101000203166002900490600052602060002090601f016020900481019282601f1061016d57805160ff191683800117855561019b565b8280016001018555821561019b579182015b8281111561019a57825182559160200191906001019061017f565b5b5090506101a891906101ac565b5090565b6101ce91905b808211156101ca5760008160009055506001016101b2565b5090565b90565b610224806101e06000396000f30060806040526004361061004c576000357c0100000000000000000000000000000000000000000000000000000000900463ffffffff1680632d35a8a2146100515780633477ee2e1461007c575b600080fd5b34801561005d57600080fd5b50610066610130565b6040518082815260200191505060405180910390f35b34801561008857600080fd5b506100a760048036038101908080359060200190929190505050610136565b6040518084815260200180602001838152602001828103825284818151815260200191508051906020019080838360005b838110156100f35780820151818401526020810190506100d8565b50505050905090810190601f1680156101205780820380516001836020036101000a031916815260200191505b5094505050505060405180910390f35b60015481565b6000602052806000526040600020600091509050806000015490806001018054600181600116156101000203166002900480601f0160208091040260200160405190810160405280929190818152602001828054600181600116156101000203166002900480156101e85780601f106101bd576101008083540402835291602001916101e8565b820191906000526020600020905b8154815290600101906020018083116101cb57829003601f168201915b50505050509080600201549050835600a165627a7a72305820d257edffe1d82ec2a5e413d66e7bfa618609cd6c664f3815fdb3d264cde6ed0e0029",
  "source": "pragma solidity ^0.4.11;\r\n\r\ncontract Election {\r\n  // it doesn't  hvae to be public cuz\r\n  // we are not going to access it direclty \r\n  struct Candidate {\r\n    uint id;\r\n    string name;\r\n    uint voteCount;\r\n  }\r\n\r\n  // the key will corrospond to the \r\n  // candidate id and we will be able to \r\n  // access the candidates fro the auto\r\n  // generated getter function candidates() \r\n  mapping(uint => Candidate) public candidates;\r\n\r\n  // cuz as i know there is no way to determine \r\n  // the saize of a mapping or even iterate \r\n  // over the mapping and this count will \r\n  // help us to iterate throw the candidates\r\n  // the default value of this will be zero \r\n  uint public candidatesCount;\r\n\r\n  constructor() public {\r\n    addCandidate(\"Salem\");\r\n    addCandidate(\"Mohammed\");\r\n  }\r\n\r\n  // we made private because we don't want \r\n  // any one to be able to add candidates\r\n  function addCandidate(string _name) private {\r\n    candidatesCount++;\r\n    // this is how to add data to mapping \r\n    // and creating a struct candidate\r\n    candidates[candidatesCount] = Candidate(candidatesCount, _name, 0);\r\n  }\r\n\r\n}",
  "sourcePath": "D:\\xampp\\htdocs\\election-application-using-truffle-and-ipfs\\contracts\\Election.sol",
  "compiler": {
    "name": "solc",
    "version": "0.4.24+commit.e67f0147.Emscripten.clang"
  },
  "schemaVersion": "2.0.1",
  "updatedAt": "2018-10-15T20:58:24.473Z"
}